:020000040800F2
:10000000480400204901000883110008250F00085A
:100010008111000825090008A91900080000000046
:100020000000000000000000000000003513000880
:10003000550B000800000000FD110008091400081D
:100040006301000863010008630100086301000800
:1000500063010008630100086301000863010008F0
:1000600063010008630100086301000863010008E0
:1000700063010008630100086301000863010008D0
:1000800063010008630100086301000863010008C0
:1000900063010008630100086301000863010008B0
:1000A00063010008630100086301000863010008A0
:1000B0006301000863010008630100086301000890
:1000C0006301000863010008630100086301000880
:1000D0006301000845170008630100086301000878
:1000E0006301000863010008630100086301000860
:1000F0006301000863010008630100086301000850
:10010000630100086301000863010008630100083F
:10011000630100086301000863010008630100082F
:10012000630100086301000863010008630100081F
:10013000DFF810D000F0D4FB00480047052300088A
:10014000AFF3008048040020064880470648004777
:10015000FEE7FEE7FEE7FEE7FEE7FEE7FEE7FEE777
:10016000FEE7FEE73914000831010008F0B480EA28
:100170000102D40F4200B2EB410F02D20246084600
:1001800011464A0042D0C30DDDB2C1F3C752AD1AC9
:10019000202D35DAC1F3160141F4000204B15242B8
:1001A000C5F1200602FA06F12A411044B3EBD05FF4
:1001B00023D0C4B1012DA0EBC35009DCF0BC4FF03B
:1001C000004202EAC352DBB200F5000000F075BA4B
:1001D000400000F1807000EBC350A0F1807040EA55
:1001E000D170490009E0490841EAC071A0EBC35051
:1001F00000F50000400800EBC350F0BC00F054BA1A
:100200006142012202EB4101001BF6E7F0BC70479E
:1002100081F00041AAE780F00040A7E780EA0102F0
:1002200010B502F00043400022D04A001FD0010E5A
:1002300001EB1261C0F35600C2F3560240F4000015
:1002400042F40002A0FB022000047F39140400D015
:10025000401C50EA124001D44000491EC2B20C06B4
:1002600004EBD010401C4008802A02D003E000209C
:1002700010BD20F00100002900DA0020184310BD55
:100280002DE9FE4F804681EA0300C00F0C46009026
:1002900021F0004123F00045B8EB0200A94105D24E
:1002A0004046214690461C460B46024623F000403D
:1002B000104347D0270DC7F30A00C3F30A51029039
:1002C000401A019040286BDAC3F3130040F4801BFE
:1002D0000098924620B10023D2EB030A63EB0B0B8C
:1002E00001985946C0F14002504600F0BCF906465C
:1002F0000D4650465946019A00F0C4F910EB08002B
:100300006141002487EA115284EAE7731A4340D01E
:10031000009A62B3019A012A4FEA075215DC001BCA
:1003200061EB02014FF0004202EA0752CDE90042C0
:10033000001C41F5801132462B4600F0FBF903B05A
:10034000BDE8F08F40462146F9E7001B61EB020152
:10035000001C41F5801300185B412018A2F500171E
:1003600047EB030140EAD570B6196D4111E06D0805
:100370004FEA360645EAC0754FEA0752001B61EBAB
:100380000201001C41F5801149084FEA30000019B4
:10039000514132462B4603B0BDE8F04F00F0BBB9E7
:1003A0000098012240000023D0EB020263EBE073CF
:1003B000009821464FEAE074B8EB000061EB0401BD
:1003C000E9E783F000435BE781F0004158E72DE95E
:1003D000FE4F81EA030404F0004421F00041009440
:1003E0004FF0000B23F0004350EA01045ED052EAC4
:1003F00003045BD0C3F30A54C1F30A552C44A4F29E
:10040000F3340194A0FB0254C1F3130141F48011B1
:10041000C3F3130343F4801301FB024400FB034EB8
:10042000840A970A44EA815447EA8357A4FB076881
:1004300002958D0A05FB07854FEA932C04FB0C54AB
:100440002705029D4FEA065847EA1637B5EB08051F
:100450006EEB070C870E920E47EA811742EA831271
:10046000A7FB0201B6EB0B0164EB00042B0D43EA82
:100470000C335E1844EB1C50DA465146E7FB020190
:10048000C5F313044FEA0B3343EA14534FEA043223
:10049000019C43EA0603A4F10C040294009CCDE9FC
:1004A00000B400F047F903B0BDE8F08F002001462A
:1004B000F9E770B521F0004303430CD0C1F30A55AE
:1004C0000024D5EB040564EB0403D617AD1AB34141
:1004D00002DB0020014670BD201841EB025170BDC7
:1004E0000EB540F2334102910021CDE900110A46D8
:1004F0000B4600F01FF903B000BD20F00040C10D15
:10050000C0F3160040F400007F2901DA0020704794
:10051000962903DCC1F19601C8407047963988409E
:10052000704700F0004230F000400AD0C10D01F5E4
:100530006071C0F3160042EA0151C208400711433E
:10054000704700200146704730B5041E71F1000469
:1005500004DB4FF00044404264EB0101141E73F1D0
:10056000000405DB1C464FF00043524263EB0403DA
:10057000994208BF904230BD01F0004330B421F0F1
:10058000004150EA010206D00A0DA2F56072C1F3E3
:100590001301002A02DC30BC00207047440F44EAFB
:1005A000C104C100E01830BC00EBC25000F07CB8C0
:1005B000002801DBC0F10040002901DBC1F100414E
:1005C00081427047002801DBC0F10040002901DBB7
:1005D000C1F100418842704730B50B46014600200A
:1005E0002022012409E021FA02F59D4205D303FAF5
:1005F00002F5491B04FA02F52844151EA2F1010276
:10060000F1DC30BD2DE9F05F0546002092469B46A7
:1006100088460646814640241BE028464146474618
:10062000224600F06FF953465A46C01A914110D342
:1006300011461846224600F016F82D1A67EB0108FD
:100640004F4622460120002100F00DF817EB00096B
:100650004E41201EA4F10104DFDC484631462A4603
:100660004346BDE8F09F202A04DB203A00FA02F15D
:10067000002070479140C2F1200320FA03F3194390
:1006800090407047202A06DBCB17203A41FA02F04F
:1006900043EAE07306E041FA02F3D040C2F12002DF
:1006A00091400843194670470029A8BF7047401C75
:1006B000490008BF20F00100704710B4B0FA80FC78
:1006C00000FA0CF050EA010404BF10BC704749B1B5
:1006D000CCF1200421FA04F411FA0CF118BF012125
:1006E00021430843A3EB0C01CB1D4FEA00614FEA05
:1006F000102042BF002010BC704700EBC3501044D4
:100700000029A4BF10BC7047401C490008BF20F05E
:10071000010010BC704710B5141E73F1000408DA14
:10072000401C41F1000192185B411A4301D120F0B5
:10073000010010BD2DE9F04D92469B4611B1B1FA72
:1007400081F202E0B0FA80F220329046FFF78BFF90
:1007500004460F4640EA0A0041EA0B0153465A4656
:10076000084313D0114653EA010019D0C8F14002E2
:10077000504600F0C7F805460E46504659464246D8
:10078000FFF771FF084305D0012004E020463946F9
:10079000BDE8F08D0020054346EAE0762C43374360
:1007A0000A986305E40AA0EB08000022FD0A44EA67
:1007B00047540A3002D500200146E9E70105101927
:1007C0006941DDE9084500196941BDE8F04DA2E73E
:1007D0002DE9F04D81EA030404F0004B21F00045BF
:1007E00014464FF0000A23F0004150EA050220D0E1
:1007F00054EA01021DD0C5F30A570246C5F313039C
:10080000C1F31300C1F30A5640F4801543F480137A
:10081000A7EB0608101BD64608F2FD3873EB05005F
:1008200002D308F1010801E092185B41B8F1000F12
:1008300003DA00200146BDE8F08D00204FF480115E
:10084000064684460EE0171B73EB050705D3121B03
:1008500063EB050306434CEA010C49084FEA3000FC
:1008600092185B4150EA0107EDD152EA030012D021
:1008700082EA040083EA0501084305D0101BAB415E
:1008800006D20122002306E000224FF0004302E0DE
:100890006FF0010253101AEB06004CEB085110EBFD
:1008A0000A0041EB0B01BDE8F04DFFF734BFC1F387
:1008B0000A52C1F3130140F2FF3341F480119A420E
:1008C00002DA00200146704740F233439A42A2F216
:1008D000334202DC524200F015B8FFF7C4BE0000FC
:1008E000064C074D06E0E06840F0010394E807007D
:1008F00098471034AC42F6D3FFF71EFC842400085E
:10090000A4240008202A04DB203A21FA02F0002166
:10091000704721FA02F3D040C2F12002914008430F
:1009200019467047FEE7000070B5002400F056F845
:10093000104D04E0641CE4B2012001F0B7FCD5F8CE
:100940003C0108B1C82CF5D3C82C01D3012070BDDF
:10095000002404E0641CE4B2012001F0A7FCD5F8F7
:100960003C0108B9F02CF5D3F02C01D3012070BD67
:10097000002070BD0000214210B500F0B3F800F077
:100980009DF8FFF7D1FFCC2000F0BAF8BE2000F0B0
:10099000B7F800F083F8044600F080F804EB00207C
:1009A00080B21F21B1EBD02F0CD1C043401C80B2CC
:1009B000FFF796FD0022084BFFF709FDBDE8104048
:1009C000FFF7DABDFFF78CFD6FF00302FFF771FD53
:1009D000BDE81040FFF7D0BD0000B0BF08B54FF430
:1009E0000040ADF8000048208DF803006946024839
:1009F00000F010FA08BD00000008014008B54FF4EF
:100A00000040ADF8000003208DF8020010208DF8A2
:100A100003006946014800F0FDF908BD00080140E7
:100A200008B50121042000F0F9FB01210A4800F07B
:100A300045FA4FF40040ADF8000003208DF80200A5
:100A400010208DF803006946044800F0E3F900F037
:100A500035F8FFF769FF08BD0004300000080140C9
:100A600010B5FFF7CBFF0C4C00202060022001F0F6
:100A70001DFC01202060FFF7B1FF0C2001F016FCE7
:100A800054F8800C08B1012400E00024322001F069
:100A90000DFC204610BD0000BC01214270B50025B0
:100AA0000124FFF7DDFFC00140EA5500C5B2641C18
:100AB000E4B2082CF5D9284670BD000010B5FFF748
:100AC0009DFF074C0020206040F2EE2001F0EEFB7D
:100AD00001202060BDE810400F2001F0E7BB0000BE
:100AE000BC01214210B5FFF7E9FFFFF71DFFCC2045
:100AF00000F006F8BDE81040442000F001B8000006
:100B00002DE9F0410546FFF779FF0124104E00273B
:100B1000A04605F001006D0850B1C6F8BC71022076
:100B200001F0C4FBC6F8BC813C2001F0BFFB09E02A
:100B3000C6F8BC713C2001F0B9FBC6F8BC810220AC
:100B400001F0B4FB641CE4B2082CE2D9BDE8F081EA
:100B500000002142704700002DE9F04780487F499E
:100B60000069FFF75BFBFFF7C8FC81B20A22B1FB0B
:100B7000F2F07B4C02FB1010641CE070B1FBF2F051
:100B8000B0FBF2F302FB1300A0706420B1FBF0F0A5
:100B9000B0FBF2F302FB130060704FF47A76B1FB06
:100BA000F6F1B1FBF2F002FB10102070DFF8B49107
:100BB0000821484600F0B0F91021484600F0ACF991
:100BC0002021484600F0A8F9271D04F117053878C0
:100BD000DFF894A1285C0102504600F0A1F93046EC
:100BE00001F064FB0021504600F09AF908214846C4
:100BF00000F094F91021484600F08EF92021484673
:100C000000F08AF978784FF6FF78285C803008EA9F
:100C10000021504600F084F9304601F047FB0021E6
:100C2000504600F07DF90821484600F075F9102182
:100C3000484600F073F92021484600F06DF9B87875
:100C4000285C0102504600F06BF9304601F02EFBA3
:100C50000021504600F064F90821484600F05EF992
:100C60001021484600F05AF92021484600F054F976
:100C7000F878285C0102504600F052F9304601F045
:100C800015FB0021504600F04BF90821484600F0C2
:100C900043F91021484600F03FF92021484600F072
:100CA0003DF92078285C0102504600F039F93046C1
:100CB00001F0FCFA0021504600F032F908214846C4
:100CC00000F02CF91021484600F026F92021484672
:100CD00000F024F96078285C803008EA0021504652
:100CE00000F01EF9304601F0E1FA0021504600F014
:100CF00017F90821484600F00FF91021484600F086
:100D00000DF92021484600F009F9A078285C01027D
:100D1000504600F005F9304601F0C8FA002150466F
:100D200000F0FEF80821484600F0F8F81021484687
:100D300000F0F4F82021484600F0F0F8E078285C54
:100D40000102504600F0ECF8304601F0AFFA504690
:100D5000BDE8F047002100F0E3B800000000C84201
:100D60000000002000080140000C01402DE9F04186
:100D7000DFF88C80234E244F244D254CD4E9040108
:100D8000FFF716FC1AD20020C8F88001D4E904103D
:100D9000FFF73EFAE0600021304600F081FC394662
:100DA000E068FFF73BFA2946FFF7E0F9FFF7A5FBFC
:100DB00081B23046BDE8F04100F074BCD4E90401D2
:100DC000FFF700FC19D20120C8F88001D4E9040122
:100DD000FFF71EFAE0603946FFF720FA2946FFF7D1
:100DE000C5F9FFF78AFB81B2304600F059FC304666
:100DF000BDE8F041002100F055BCBDE8F0810000E5
:100E000000002142000400400000484200007A43F4
:100E1000000000202DE9F0410022CC7804F00F03FF
:100E2000E40601D58C7823430C784FF00F0714F0BB
:100E3000FF0F4FF0010C1CD005680CFA02F40E886D
:100E40002640A64211D1960007FA06F825EA0805C1
:100E500003FA06F848EA0505CE78282E02D0482E77
:100E600002D002E0446100E00461521C082AE4D38D
:100E700005600A88FF2A1ED94568002202F108068B
:100E80000CFA06F40E882640A64210D1960007FA06
:100E900006F825EA080503FA06F848EA0505CE78BB
:100EA000282E00D14461CE78482E00D10461521C16
:100EB000082AE3D34560BDE8F0810000F0B5154C89
:100EC000002801DAE36900E06368C0F30346420DDD
:100ED000120185B2C0F301579540032F07D0C2021B
:100EE0000CD50322B240934343F0706209E023F033
:100EF0007062636823F07063636002E0AB4343F0A9
:100F0000706201B12A43002801DAE261F0BD62603B
:100F1000F0BD000000000140416170470161704771
:100F2000C1607047FEE7000008B50121082000F00D
:100F300075F91320ADF8000048208DF80300032058
:100F40008DF8020069460248FFF764FF08BD000003
:100F5000000C01402DE9F04107461C4C1C4D0126B8
:100F60002078012808D1D5F8000150B1D5F8040146
:100F700038B1D5F8100120B1D5F80001012816D0FC
:100F80001EE00A2001F078F900202070D5F8000159
:100F900030B1D5F8040130B1D5F8100128B10FE017
:100FA0000120BDE8F0810220FBE70520F9E7D5F834
:100FB0000401012804D1D5F81001012800D12670C0
:100FC000012F00D126700020EBE700003C0000203C
:100FD000008021422DE9F0470020FFF7BBFF534975
:100FE000012801F1050904D0022809D0052811D1F2
:100FF0000DE0087819F80020521C09F8002009E0DB
:10100000087819F80020521E09F8002002E008783C
:10101000401C087008784FF00008042801D181F8BE
:10102000008099F803000A2806D189F8038099F80E
:101030000200401C89F8020099F802000A2806D133
:1010400089F8028099F80100401C89F8010099F89C
:1010500001000A2806D189F8018099F80000401C97
:1010600089F8000099F803100920FF2906D189F8B2
:10107000030099F80210491E89F8021099F802102D
:10108000FF2906D189F8020099F80110491E89F854
:10109000011099F80110FF2906D189F8010099F88B
:1010A0000000401E89F8000099F80000FF2807D1D1
:1010B00089F8038089F8028089F8018089F8008026
:1010C00099F80300FFF70CFA194A1A4BFFF77FF95A
:1010D00004460D4699F80200FFF702FA164A174B2C
:1010E000FFF775F906460F4699F8000099F80110C8
:1010F00000EB800001EB4000FFF7F2F932463B467F
:10110000FFF7BEF822462B46FFF7BAF800220C4B39
:10111000FFF71AFA08D289F8038089F8028089F863
:101120000180052089F80000BDE8F087000000205C
:101130007B14AE47E17A843F9A9999999999B93F7E
:101140000000494038B50121042000F067F8032071
:10115000ADF8000010218DF803108DF80200074C47
:1011600069462046FFF756FE01212046FFF7D4FED0
:1011700002212046FFF7D2FE38BD000000080140E2
:10118000FEE7704770B50F23C27801260178002A68
:101190001ED0144A126802F4E062C2F5E062120A3C
:1011A000C2F10404D3404578A54082781A402A430E
:1011B000120101F1E02181F80024007800F01F0104
:1011C0008E404009800000F1E020C0F8006170BD51
:1011D00001F01F0086404809800000F1E020C0F8BF
:1011E000806170BD0CED00E00249084302490860CF
:1011F000704700000000FA050CED00E070470000A9
:10120000054A002903D0D1690143D1617047D169F2
:101210008143D1617047000000100240054A002957
:1012200003D0916901439161704791698143916154
:10123000704700000010024010B5264A516801F0C6
:101240000C01254B002927D0042927D0082927D0B5
:101250000360516801F0F0010909204B5C5C0168F2
:10126000E1404160546804F4E064240A1C5D21FA02
:1012700004F48460546804F46054E40A1B5DD940AB
:10128000C160526802F44042920B144B1B1F9A5CDF
:10129000B1FBF2F1016110BD0360DAE70360D8E74A
:1012A000516801F47011536803F48033022404EB95
:1012B000914133B153689B0307D5094B59430160F2
:1012C000C7E7074B59430160C3E7034B594301602C
:1012D000BFE700000010024000127A002C0000203E
:1012E00000093D0038B501210820FFF797FF4FF4B2
:1012F0007F40ADF8000010258DF8035003248DF8D1
:10130000024069460948FFF785FD01210420FFF7E7
:1013100085FF3820ADF800008DF803508DF80240AD
:1013200069460348FFF776FD38BD0000000C014018
:1013300000080140704700F001B800000CB5002221
:10134000019200922748016841F4803101604FF416
:10135000A063016801F4003100910199491C0191D9
:10136000009911B901999942F3D10168890302D515
:101370000121009100E000920099012930D11A4921
:101380000A6842F010020A600A6822F003020A604A
:101390000A6842F002020A604168416041684160A7
:1013A000416841F480614160416821F47C114160F1
:1013B000416841F4E8114160016841F080710160C9
:1013C00001688901FCD5416821F003014160416851
:1013D00041F0020141604168C1F381010229FAD163
:1013E0000CBD000000100240002002404FF0E02140
:1013F000042804D0086920F00400086170470869D7
:1014000040F00400086170477047000010B50446C2
:101410006FF00400FFF7EAFF0649E008087000EBF0
:101420004002C2EBC0104FF6FF7202EAC0004880D3
:1014300010BD00003E00002010B50F48016841F0CB
:101440000101016041680D4A1140416001680C4A88
:1014500011400160016821F480210160416821F49C
:10146000FE0141604FF41F018160FFF764FF0549F1
:101470004FF00060086010BD001002400000FFF84F
:10148000FFFFF6FE08ED00E0F0B589B004460D461A
:1014900001212020FFF7C2FE01210220FFF7B0FE4C
:1014A00001210846FFF7BAFEC022ADF8042003224E
:1014B0008DF8062018228DF8072001A91E48FFF795
:1014C000A9FCADF81C40ADF818500020ADF81E0086
:1014D000ADF81A00194F06A9384600F0E5F8602665
:1014E000ADF808600224ADF810400125ADF80A50AF
:1014F00002A9384600F03CF80821384600F07CF894
:101500000121384600F01CF8ADF80860ADF8104035
:10151000ADF80A5002A9384600F074F808213846A0
:1015200000F0B4F80121384600F00AF801213846ED
:1015300000F012F809B0F0BD0008014000040040BE
:10154000002904D0018841F08001018070470188A2
:1015500021F0800101807047002904D0018841F00A
:10156000010101807047018821F00101018070476D
:1015700030B5028C22F001020284028C8388048B35
:1015800024F0700424F003050C882C4322F002029E
:101590000D8915434A882A43124DA8420BD0124D9B
:1015A000A84208D0114DA84205D0114DA84202D042
:1015B000104DA8420FD122F008054A892A4322F093
:1015C00004058A882A4323F4807323F400738D89E9
:1015D0001D43CB892B4383800483C9888186028481
:1015E00030BD0000002C01400034014000400140AB
:1015F0000044014000480140028B22F008020A43E7
:101600000283704770B5028C22F010020284028CB3
:101610008388048B24F4E04424F440760D884FF64C
:10162000FF7404EA0525354322F020020E8904EAFE
:10163000061616434A8804EA02123243114EB0429B
:1016400002D0114EB04217D122F080024E8904EA36
:101650000616164326F040068A8804EA0212324330
:1016600023F4806323F400638E8904EA86061E4314
:10167000CB8904EA8303334383800583C9880187C8
:10168000028470BD002C014000340140028B22F422
:1016900000624FF6FF7303EA012111430183704793
:1016A000818670470187704730B502881B4C1C4DFE
:1016B000A0420DD0A8420BD0B0F1804F08D0194BFA
:1016C000984205D0184B984202D0184B984203D14B
:1016D00022F070034A881A43154B984206D0154BE6
:1016E000984203D022F44073CA881A4302808A8841
:1016F00082850A880285A0420AD0A84208D00E4AF4
:10170000904205D00D4A904202D00D4A904201D13C
:10171000097A01860121818230BD0000002C014040
:10172000003401400004004000080040000C00406C
:1017300000100040001400400040014000440140FF
:101740000048014010B50D4C40F22551204600F0F4
:101750008AF860B1204600F01FF9C1B2204600F0BF
:101760001FF94021204600F077F80128F9D12046E2
:10177000BDE81040402100F05FB800000038014093
:1017800070B586B0054601210420FFF747FD012111
:101790008803FFF743FD01210846FFF73FFD4FF4A3
:1017A0000070ADF8140003248DF8164018208DF851
:1017B00017001F4E05A93046FFF72CFB3015ADF87A
:1017C000140004208DF8170005A93046FFF722FB0E
:1017D00001950020ADF80800ADF80A00ADF80C0046
:1017E000ADF810000C20ADF80E00124D01A92846EE
:1017F00000F074F80121284600F022F84021284624
:1018000000F01AF8012240F22551284600F04BF86A
:1018100025208DF800008DF801408DF80240012050
:101820008DF803006846FFF7ADFC06B070BD000000
:1018300000080140003801408A05C9430180704713
:10184000002904D0818941F4005181817047818948
:1018500021F40051818170470246002012880A421B
:1018600000D00120704770B5002440F66A12C1F321
:10187000421301F01F05012606FA05F2012B0CD0D8
:10188000022B0DD0838A1340090A8E400088304015
:101890000BB100B10124204670BD83891340F3E7EA
:1018A000038A1340F0E710B540F66A13C1F3421300
:1018B00001F01F040121A140012B07D0022B07D00A
:1018C00014303AB102680A43026010BD0C30F8E7E8
:1018D0001030F6E702688A43026010BD30B585B06B
:1018E00004460D46208A4CF6FF710840E988014302
:1018F0002182A0894EF6F3110840A9882A89114354
:101900006A8902431143A181A08A4FF6FF41084032
:10191000A9890143A1826846FFF78EFC1D488442D5
:1019200001D1039800E00298A189090408D500EBD1
:10193000C00101EB001029684900B0FBF1F007E09D
:1019400000EBC00101EB001029688900B0FBF1F049
:101950006422B0FBF2F109010B096FF018056B432B
:1019600000EB8300A3891D044FF0320307D503EB7E
:10197000C000B0FBF2F000F00700084306E003EB04
:101980000010B0FBF2F000F00F000843208105B01A
:1019900030BD0000003801408088C0F30800704767
:1019A000C1F3080181807047FEE700000FB4054BCA
:1019B00010B503A9044A029800F0DAF810BC5DF8EB
:1019C00014FB0000E12200084400002002E008C8E7
:1019D000121F08C1002AFAD170477047002001E0A9
:1019E00001C1121F002AFBD1704700002DE9FF5FE3
:1019F00082B00021DDE90430020DDDF840B0034380
:101A000018D044F61050A2F2FF3242431514119838
:101A100001281FD0A5EB0B00401C5FEA000A4FF025
:101A200000064E4FDFF83891B046504615D5CAF142
:101A3000000413E0119801244AA3012801D16FEAA0
:101A40000B010298119AC0E90031C0E9024206B0C8
:101A5000BDE8F09FCBF10000DFE704460021404ADB
:101A6000491842EB0450CDE9001012E0E00707D01E
:101A700032463B4640464946FEF7A9FC8046894629
:101A800032463B4610461946FEF7A1FC06460F4675
:101A90006410002CEAD1DDE90401DDE90023BAF18C
:101AA000000F06DAFEF793FC42464B46FEF78FFC2A
:101AB00005E0FEF78DFE42464B46FEF789FE0446E2
:101AC0000E460022284BFEF73FFD03D84FF0FF30B3
:101AD000014607E00022254B20463146FEF7D0FBA9
:101AE000FEF7E5FE102409E0002C0ADB0A220023A1
:101AF000FEF788FD039B30321A55641E50EA01023E
:101B0000F2D1641C039AC4F111031444119A012AFE
:101B100003D0012208430DD10AE0084304D000207D
:101B20004FF0110B119072E7A3EB0B056D1E0DE04A
:101B30005B4504DD4FF0000205F1010504E003DA26
:101B40004FF00002A5F10105002AECD0029811998E
:101B5000C0E90231C0E9004579E700000000144007
:101B60000000F03F300000000000F0430000E03FC4
:101B70002DE9FF4F95B09A46884606460025EEE1CE
:101B8000252877D100242746F94A0121039400E053
:101B9000044316F8013F203B01FA03F01042F7D14D
:101BA00030782A2811D06FF02F033078A0F130025E
:101BB000092A16D8039A44F0020402EB820203EBCE
:101BC00042021044761C0390EFE758F8042B03926E
:101BD000002A03DA504244F40054039044F0020413
:101BE000761C30782E2816D116F8010F44F0040424
:101BF0002A280DD06FF02F023078A0F13003092B86
:101C000009D807EB870302EB4303C718761CF3E7F9
:101C100058F8047B761C30786C280FD006DC4C28F2
:101C200017D068280DD06A2814D104E0742810D089
:101C30007A280FD10DE044F400140AE044F4801433
:101C400001E044F440147278824202D104F5801419
:101C5000761C761C307866280BD013DC582877D099
:101C600009DC002875D04528F6D04628F4D047284E
:101C70001AD193E118E0632835D0642879D065281B
:101C800012D18BE1702873D008DC6728F1D0692865
:101C90006FD06E280DD06F2806D1ACE073282CD001
:101CA000752874D0782853D05246179990476D1CE8
:101CB00054E1C4F30250022809D003280DD0D8F80B
:101CC000001004280DD00D6008F1040846E1D8F892
:101CD0000010EA17C1E90052F6E7D8F800100D80AD
:101CE000F2E70D70F0E718F8041B8DF800100020E3
:101CF0008DF80100EB46012003E058F804BB4FF0DB
:101D0000FF3061074FF0000102D40DE009F101013D
:101D10008946B9420FDA8145F8DB1BF80910002922
:101D2000F4D108E009F1010189468142FADB1BF890
:101D300009100029F6D103985346A0EB0907214664
:101D40003846179A00F080FA284400EB090507E0AE
:101D500044E008E10DE01BF8010B5246179990474B
:101D6000B9F10109F7D2534621463846179AF2E0F5
:101D700039E00A21C4F302524FF0000B0091022A0D
:101D800006D058F8040BC117032A09D00AE023E053
:101D900008F1070020F00702F2E80201904605E092
:101DA00000B2C117042A01D140B2C117002906DAD6
:101DB0000A460021404261EB02012D2202E0220589
:101DC00004D52B228DF80420012203E0E20701D084
:101DD0002022F7E7914657E00A2100E010214FF05A
:101DE000000B00910BE010214FF0000B44F00404B5
:101DF0000827009103E008204FF0000B0090C4F387
:101E00000252022A05D058F8040B0021032A08D0F8
:101E100008E008F1070020F00702F2E8020190460E
:101E200003E080B2042A00D1C0B24FF000092207BB
:101E30002AD53278702A07D0DDF800C08CF0100C5B
:101E40005CEA0B0C05D00EE040228DF80420012244
:101E500008E050EA010306D030238DF804308DF8F5
:101E6000052002229146009B83F0080353EA0B03EE
:101E70000AD150EA010201D1620705D530228DF85E
:101E800004204FF001097F1E3278582A04D039A26D
:101E90000C920CAA02920BE03BA2F9E75B46009A77
:101EA000FEF7B0FB0C9B9B5C029A521E02921370D1
:101EB00050EA0102F2D1029804A9081A00F1200B9D
:101EC000600702D524F4803400E001275F4502DD7D
:101ED000A7EB0B0000E0002000EB0B010090039843
:101EE0004944401A0390E00306D453462146179A0A
:101EF000039800F0A9F90544002706E001A852461E
:101F0000C05D179990476D1C7F1C4F45F6DBE003C1
:101F10000CD553462146179A039800F095F90544CD
:101F200004E030205246179990476D1C0099481ED6
:101F300000900029F5DC08E00298029952460078EA
:101F4000491C0291179990476D1CBBF10001ABF140
:101F5000010BF1DC5BE100F065F90544761C30789B
:101F600000287FF40DAE19B02846BDE8F08F0000C0
:101F7000092801003031323334353637383961625F
:101F80006364656600000000303132333435363723
:101F9000383941424344454600000000600700D400
:101FA000062708F1070020F00700F0E8022380462A
:101FB00003F0004C5FEA0C0001D097A009E0200577
:101FC00001D596A005E0E00701D095A001E0AFF2B1
:101FD0004C001390307823F0004365280CD006DCC9
:101FE000452809D046281DD047287FD13BE06628E8
:101FF00018D067287AD136E00021112F01DB11209B
:1020000000E0781CCDE9000104A90CA8FFF7EEFC64
:10201000DDE90D010C9A4FF0000B07F10109109258
:1020200000914EE04FF000400097CDE9011004A967
:102030000CA8FFF7DBFCDDE90D020C9B0F994FF0BC
:10204000000B91461093009211B9791C00EB010925
:10205000B7EB090003D4C0F1FF3B07F10109A9EB7D
:102060000700019042E0012F00DA01270021112F23
:1020700001DD112000E03846CDE9000104A90CA8DB
:10208000FFF7B4FCDDE90D010C9A00914FF0000B55
:10209000B946109221070FD4009A4A4503DA9146B7
:1020A00001E0A9F10109B9F1010F05DD109AA9F1CB
:1020B0000101515C3029F4D0B84202DA10F1040F6A
:1020C00003DA0121CDE9011010E0002803DC83448C
:1020D000A9EB000102E0411C494500DD8946A0EB67
:1020E0000B00401C01904FF000400290200705D4E7
:1020F0000198484502DB4FF0FF30019000208DF839
:102100004B0002980DF14B07B0F1004F25D0022093
:102110000C902B200D90029800280CDA404202907F
:102120002D200D9007E00A210298FEF755FA303174
:10213000029007F8011D0C99481E0C900029F2DC52
:1021400002980028EFD1791E0D980870307800F0C1
:10215000200040F0450007F8020D11A8C01BC01D6B
:1021600002901398007800B1012000EB090101985A
:1021700001EBE071029801440398401A401E03905D
:10218000E00306D453462146179A039800F05CF802
:1021900005441398007818B15246179990476D1C62
:1021A000E00323D553462146179A039800F04CF8D4
:1021B00005441BE0BBF1000F07DB0098584504DD28
:1021C0001098179910F80B0001E01799302052462B
:1021D000904701980BF1010B401E05F1010501909C
:1021E00004D12E205246179990476D1CB9F1000179
:1021F000A9F10109DEDC05E017F8010B5246179939
:1022000090476D1C0299481E02900029F4DC534649
:102210002146179A03989EE62D0000002B0000002F
:10222000200000002DE9F041044600251E46174617
:10223000880404D405E039462020B0476D1C641E94
:10224000F9D52846BDE8F0812DE9F0410446002586
:102250001E469046C80301D5302700E02027880499
:1022600004D505E041463846B0476D1C641EF9D5DB
:102270002846BDE8F08100000B49498848434FF0EB
:10228000E021486100238B61086940F0010008618A
:102290000869C20701D0C003FAD5086920F001001F
:1022A00008618B61704700003E0000200B490978EF
:1022B00048434FF0E021486100238B61086940F0FA
:1022C000010008610869C20701D0C003FAD5086996
:1022D00020F0010008618B61704700003E00002083
:1022E00070B50446064DE1B22846FFF759FB802140
:1022F0002846FFF7B1FA0028F9D0204670BD00004B
:10230000003801404FF000084820FFF77FF84FF4F5
:10231000A060FEF769FFFEF715FFFEF7E3FF472118
:102320004FF4FA60FFF7B0F8FEF7FEFD4FF41650D9
:10233000FFF726FA4FF4FA7405E036A0FFF736FBF4
:102340002046FFF799FFFEF76BFB0028F5D137A079
:10235000FFF72CFBDFF8EC90DFF8ECB0A9F1050AF1
:10236000FEF738FEFEF708FBCAF8100099F80300E4
:10237000FEF7B6F85A46354BFEF729F804460D46E7
:1023800099F80200FEF7ACF8314A324BFEF71FF81D
:1023900006460F4699F8000099F8011000EB8000FE
:1023A00001EB4000FEF79CF832463B46FDF768FF24
:1023B00022462B46FDF764FFFEF7DEF8CAF814004C
:1023C000FEF7CAFBFEF7D2FC4FF47A70FFF76EFF00
:1023D000B8F1C80F18D94FF00008DAF81000FEF76E
:1023E000A0F802460B461CA0FFF7E0FADAF814004A
:1023F000FEF797F802460B461BA0FFF7D7FA9AF8AC
:1024000000101DA0FFF7D2FA08F1010808F0FF083C
:10241000A6E700004453313842323020496E6974D7
:10242000204661696C6564210D0A0000445331380F
:1024300042323020496E697420537563636573734B
:10244000210D0A00050000207B14AE47E17A843F8D
:102450009A9999999999B93F6E6F775F74656D7084
:102460003A2025660D0A00007265665F74656D701E
:102470003A2025660D0A0000646F743A2025640D29
:102480000A000000A424000800000020480000000A
:10249000CC190008EC2400084800002000040000CB
:1024A000DC1900080002080000020800000000001B
:1024B0000000000000000000000000003F065B4F2D
:1024C000666D7D077F6F777C395E7971020406083F
:1024D00000000000010203040102030406070809CA
:0C24E000010000000000000000000000EF
:0400000508000131BD
:00000001FF
