:100913003F065B4F666D7D077F6F777C395E79712C
:1009230000000100020003000E00040005000600A1
:100933000D000700080009000C000A0000000B006E
:010943000AA9
:1008DC00015600015F0008570003000000020000F1
:1008EC000E60000600000000000000000000000088
:1008FC00026E00000270000002540000017500013D
:06090C007400025200001D
:10095700438901758CD8758AF0D2A9D28CD2B92275
:03000B00020601E9
:10060100C0E0C0F0C083C082C0D075D000C000C0BF
:1006110001C002C003C004C005C006C007E55F6495
:0606210001600302072D39
:10062700F508F509755601208D030206E8E55F64B4
:100637000160030206E8C28D758CD8758AF005093A
:10064700E50970020508C39464E5089400500302A5
:1006570006E8750800750900E56D156D7002156CE3
:10066700E56C648094805079756C00756D09E56B55
:10067700156B7002156AC3E56A64809480506275D1
:100687006A00756B05E569156970021568C3E56849
:1006970064809480504B756800756909E567156734
:1006A70070021566C3E566648094805034756600F1
:1006B700756705E565156570021564C3E5646480B3
:1006C7009480501D756400756509E56315637002B4
:1006D7001562C3E562648094805006756200756395
:1006E70000E55FB40102057512043612000EE563DA
:1006F7004562600302062EE5654564600302062E27
:10070700E5674566600302062EE5694568600302F2
:10071700062EE56B456A600302062EE56D456C60A3
:060727000302062EF55F3F
:10072D00D007D006D005D004D003D002D001D00020
:0B073D00D0D0D082D083D0F0D0E032CA
:10094400D288D2A8D2AFC2B812096712000E12041C
:030954003680F5F5
:040967007F647E002B
:0B096B00EF1FAC0670011E4C70F6225E
:10000E00782E7C007D007BFF7A0979247E007F208C
:10001E00120818E4F54EF54FF550AE5BAF5CFC7D63
:10002E000A12083EE55E2FFBE55D3EFAAE59AF5A69
:10003E007D6412083EEF2BF573EE3AF57275A00F44
:10004E00E5A0640F70030204307FE87E0312096B93
:10005E00E5A0640F7003020435AFA0EF24F5601025
:10006E0024FE601114601324077012E4F54F800D06
:10007E00754F018008754F028003754F0375A0F010
:10008E00AFA0EF2450601124E0601224F06013241E
:10009E00707012E4F54E800D754E018008754E029B
:1000AE008003754E03E556147003020312046003B9
:1000BE00020435E54EC394035007E54FC394034045
:1000CE0012E54E64036003020165E54F64016003AF
:1000DE00020165E55F6003020165AF58EF25E0247C
:1000EE0057F808E6F551E54E75F008A4242EF8E50C
:1000FE004F25E028F8E6FC08E6FDEF25E02457F84A
:10010E00A60408A605AE5BAF5C7C007D0A12083E15
:10011E00E55E2FFBE55D3EFAAE59AF5A7D641208DF
:10012E003EEF2BFFEE3AFED3EF94FAEE9400400F23
:10013E00755900755A02755B00755C05E4802FC316
:10014E00EF9414EE94004003020435E4F559F55A89
:10015E00F55B755C028017E54EB40317E54FB402EC
:10016E0012E55F700EF559F55AF55B755C02F55D9B
:10017E00F55E22E54EB4032EE54F702AE55F70263C
:10018E007F207E4E12096BE558155870021557C325
:10019E00E5589401E5576480948040030204357558
:1001AE00570075580322E54EB4031BE54FB40316F2
:1001BE007F207E4E12096B0556E556D394015003EF
:1001CE0002043502040BE54E6003020277E54F642C
:1001DE00036003020277E55F6003020277056FE5B5
:1001EE006F7002056ED3940AE56E940050030203FD
:1001FE000FE57394FAE57294005042755001E55084
:10020E00255EF55EE4355DF55DD3E55E9409E55D4D
:10021E00648094804043E4F55DF55E055CE55C70BA
:10022E0002055BD39409E55B64809480402BE4F572
:10023E005BF55C055AE55A70200559801CC3E573C1
:10024E0094FAE57294004011755900755A02755B67
:10025E0000755C05E4F55DF55E0553E5537002052A
:10026E0052E4F56EF56F02030FE54E640160030272
:10027E000435E54F64036003020435E55F60030255
:10028E0004350571E57170020570D3940AE570941A
:10029E0000406ED3E5739414E5729400403D7550A2
:1002AE0001E55E9550F55EE55D9400F55DC36480F5
:1002BE0094805040755D00755E09E55C155C7002BA
:1002CE00155BC3E55B648094805029755B00755C9B
:1002DE0009E55A155A701D15598019D3E5739414F2
:1002EE00E5729400500EE4F559F55AF55B755C0213
:1002FE00F55DF55E0553E55370020552E4F570F5B4
:10030E0071020436E54EC394035007E54FC39403C0
:10031E00400CE54E64037074E54F6401706EE55F4A
:10032E00706AAF61EF25E02460F808E6F551E54EFE
:10033E0075F008A4242EF8E54F25E028F8E6FC0811
:10034E00E6FDEF25E02460F8A60408A605E56B752A
:10035E00F00AA4256DFFE56775F00AA42569FEE590
:10036E006375F00AA42565FDEFC3943C500FEEC3F0
:10037E00943C5009EDC394185003020435AF51E577
:10038E006125E02460F8760008A60722E54EB40346
:10039E002BE54F7027E55F70237F207E4E12096B91
:1003AE00E561156170021560C3E5619401E5606455
:1003BE00809480507275600075610622E54E64036C
:1003CE007021E54FB4021CE55F7018F550755001B1
:1003DE00E55025E02460F8E4F608F60550E550B443
:1003EE0007EE22E54EB40319E54FB403147F207EC9
:1003FE004E12096B0556E556D39401402AE4F55684
:10040E0022E54E700FE54FB4030AE55F7019755F74
:10041E0001020957E54EB4010EE54FB40309E4F5A8
:07042E005F22E4F552F553D3
:0104350022A4
:10043600E55F600302050FE55614606B0460030276
:100446000600E4FD8D80ED7007E5569009138024C3
:10045600E5582404FFE43557FEED6F7001EE601990
:10046600ED25E0244FF8E6FE08E62413F58274092C
:100476003EF583E493F5908019ED25E0244FF8E6E8
:10048600FE08E62413F58274093EF583E49324807E
:10049600F590120967E4F590ED700474042DFD0DD6
:1004A600EDC39408409E22E4FD8D80ED7007E5566D
:1004B6009009138024E5612401FFE43560FEED6FA9
:1004C6007001EE6019ED25E0245EF8E6FE08E624EC
:1004D60013F58274093EF583E493F5908019ED25B2
:1004E600E0245EF8E6FE08E62413F58274093EF57C
:1004F60083E4932480F590120967E4F590ED70018A
:100506000D0DEDC3940840A122E55F64016003026E
:100516000600E575D394644010E574B40105E4F56E
:10052600748003757401E4F575E57414606B0460FA
:1005360003020600E4FD8D80ED7007E55690091371
:100546008024E5582404FFE43557FEED6F7001EE74
:100556006019ED25E0244FF8E6FE08E62413F5823F
:1005660074093EF583E493F5908019ED25E0244F58
:10057600F8E6FE08E62413F58274093EF583E49353
:100586002480F590120967E4F590ED700474042D4B
:10059600FD0DEDC39408409E22E4FD8D80ED7007AD
:1005A600E5569009138024E5612401FFE43560FED9
:1005B600ED6F7001EE6019ED25E0245EF8E6FE08A9
:1005C600E62413F58274093EF583E493F5908019C9
:1005D600ED25E0245EF8E6FE08E62413F5827409AC
:1005E6003EF583E4932480F590120967E4F590EDD7
:0A05F60070010D0DEDC3940840A143
:0106000022D7
:03000000020850A3
:0C085000787FE4F6D8FD758175020897EA
:10074800E709F608DFFA8046E709F208DFFA803E93
:1007580088828C83E709F0A3DFFA8032E309F60880
:10076800DFFA8078E309F208DFFA807088828C83E8
:10077800E309F0A3DFFA806489828A83E0A3F6089C
:10078800DFFA805889828A83E0A3F208DFFA804C76
:1007980080D280FA80C680D4806980F2803380104D
:1007A80080A680EA809A80A880DA80E280CA8033B6
:1007B80089828A83ECFAE493A3C8C582C8CCC5832E
:1007C800CCF0A3C8C582C8CCC583CCDFE9DEE780FE
:1007D8000D89828A83E493A3F608DFF9ECFAA9F07D
:1007E800EDFB2289828A83ECFAE0A3C8C582C8CCD3
:1007F800C583CCF0A3C8C582C8CCC583CCDFEADEEC
:10080800E880DB89828A83E493A3F208DFF980CC4D
:1008180088F0EF60010E4E60C388F0ED2402B40446
:100828000050B9F582EB2402B4040050AF232345ED
:0608380082239007987373
:10083E00EF8DF0A4A8F0CF8CF0A428CE8DF0A42ECE
:02084E00FE2288
:10085C00020944E493A3F8E493A34003F68001F265
:10086C0008DFF48029E493A3F85407240CC8C3339D
:10087C00C4540F4420C8834004F456800146F6DF6C
:10088C00E4800B01020408102040809008DCE47E18
:10089C00019360BCA3FF543F30E509541FFEE49361
:1008AC00A360010ECF54C025E060A840B8E493A328
:1008BC00FAE493A3F8E493A3C8C582C8CAC583CA53
:1008CC00F0A3C8C582C8CAC583CADFE9DEE780BE0B
:0109120000E4
:00000001FF
